{
  "contractName": "CrowdFunding",
  "abi": [
    {
      "inputs": [],
      "stateMutability": "nonpayable",
      "type": "constructor"
    },
    {
      "inputs": [],
      "name": "Manager",
      "outputs": [
        {
          "internalType": "address",
          "name": "",
          "type": "address"
        }
      ],
      "stateMutability": "view",
      "type": "function",
      "constant": true
    },
    {
      "inputs": [
        {
          "internalType": "address",
          "name": "",
          "type": "address"
        }
      ],
      "name": "contributors",
      "outputs": [
        {
          "internalType": "uint256",
          "name": "",
          "type": "uint256"
        }
      ],
      "stateMutability": "view",
      "type": "function",
      "constant": true
    },
    {
      "inputs": [],
      "name": "deadline",
      "outputs": [
        {
          "internalType": "uint256",
          "name": "",
          "type": "uint256"
        }
      ],
      "stateMutability": "view",
      "type": "function",
      "constant": true
    },
    {
      "inputs": [],
      "name": "minimumContribution",
      "outputs": [
        {
          "internalType": "uint256",
          "name": "",
          "type": "uint256"
        }
      ],
      "stateMutability": "view",
      "type": "function",
      "constant": true
    },
    {
      "inputs": [],
      "name": "noOfContributors",
      "outputs": [
        {
          "internalType": "uint256",
          "name": "",
          "type": "uint256"
        }
      ],
      "stateMutability": "view",
      "type": "function",
      "constant": true
    },
    {
      "inputs": [],
      "name": "numRequests",
      "outputs": [
        {
          "internalType": "uint256",
          "name": "",
          "type": "uint256"
        }
      ],
      "stateMutability": "view",
      "type": "function",
      "constant": true
    },
    {
      "inputs": [],
      "name": "raisedAmount",
      "outputs": [
        {
          "internalType": "uint256",
          "name": "",
          "type": "uint256"
        }
      ],
      "stateMutability": "view",
      "type": "function",
      "constant": true
    },
    {
      "inputs": [
        {
          "internalType": "uint256",
          "name": "",
          "type": "uint256"
        }
      ],
      "name": "requests",
      "outputs": [
        {
          "internalType": "string",
          "name": "description",
          "type": "string"
        },
        {
          "internalType": "address payable",
          "name": "recipient",
          "type": "address"
        },
        {
          "internalType": "uint256",
          "name": "value",
          "type": "uint256"
        },
        {
          "internalType": "uint256",
          "name": "noOfVoters",
          "type": "uint256"
        },
        {
          "internalType": "bool",
          "name": "completed",
          "type": "bool"
        }
      ],
      "stateMutability": "view",
      "type": "function",
      "constant": true
    },
    {
      "inputs": [],
      "name": "target",
      "outputs": [
        {
          "internalType": "uint256",
          "name": "",
          "type": "uint256"
        }
      ],
      "stateMutability": "view",
      "type": "function",
      "constant": true
    },
    {
      "stateMutability": "payable",
      "type": "receive",
      "payable": true
    },
    {
      "inputs": [],
      "name": "remainingTime",
      "outputs": [
        {
          "internalType": "uint256",
          "name": "",
          "type": "uint256"
        }
      ],
      "stateMutability": "view",
      "type": "function",
      "constant": true
    },
    {
      "inputs": [],
      "name": "sendEth",
      "outputs": [],
      "stateMutability": "payable",
      "type": "function",
      "payable": true
    },
    {
      "inputs": [],
      "name": "getBalance",
      "outputs": [
        {
          "internalType": "uint256",
          "name": "",
          "type": "uint256"
        }
      ],
      "stateMutability": "view",
      "type": "function",
      "constant": true
    },
    {
      "inputs": [],
      "name": "refund",
      "outputs": [],
      "stateMutability": "nonpayable",
      "type": "function"
    },
    {
      "inputs": [
        {
          "internalType": "string",
          "name": "_description",
          "type": "string"
        },
        {
          "internalType": "address payable",
          "name": "_recipient",
          "type": "address"
        },
        {
          "internalType": "uint256",
          "name": "_value",
          "type": "uint256"
        }
      ],
      "name": "createRequest",
      "outputs": [],
      "stateMutability": "nonpayable",
      "type": "function"
    },
    {
      "inputs": [
        {
          "internalType": "uint256",
          "name": "_requestNo",
          "type": "uint256"
        }
      ],
      "name": "voteRequest",
      "outputs": [],
      "stateMutability": "nonpayable",
      "type": "function"
    },
    {
      "inputs": [
        {
          "internalType": "uint256",
          "name": "_requestNo",
          "type": "uint256"
        }
      ],
      "name": "makePayment",
      "outputs": [],
      "stateMutability": "nonpayable",
      "type": "function"
    }
  ],
  "bytecode": "0x60806040523480156200001157600080fd5b5063b2d05e0060028190555033600160006101000a81548173ffffffffffffffffffffffffffffffffffffffff021916908373ffffffffffffffffffffffffffffffffffffffff160217905550606460068190555062034bc04262000077919062000083565b60058190555062000119565b60006200009082620000e0565b91506200009d83620000e0565b9250827fffffffffffffffffffffffffffffffffffffffffffffffffffffffffffffffff03821115620000d557620000d4620000ea565b5b828201905092915050565b6000819050919050565b7f4e487b7100000000000000000000000000000000000000000000000000000000600052601160045260246000fd5b61180e80620001296000396000f3fe6080604052600436106100f75760003560e01c8063590e1ae31161008a5780639fb42b1f116100595780639fb42b1f146102f4578063acc4bd081461031f578063c59ee1dc1461034a578063d4b8399214610375576100fe565b8063590e1ae31461024657806378357e531461025d57806381d12c5814610288578063937e09b1146102c9576100fe565b806329dcb0cf116100c657806329dcb0cf1461019e5780634cb6f4a5146101c95780634e260f6f146101f25780635114cb521461021d576100fe565b806306e99fef1461010357806312065fe01461010d5780631b16bb5c146101385780631f6d494214610161576100fe565b366100fe57005b600080fd5b61010b6103a0565b005b34801561011957600080fd5b506101226104fa565b60405161012f919061122d565b60405180910390f35b34801561014457600080fd5b5061015f600480360381019061015a9190610e58565b610502565b005b34801561016d57600080fd5b5061018860048036038101906101839190610e2f565b610655565b604051610195919061122d565b60405180910390f35b3480156101aa57600080fd5b506101b361066d565b6040516101c0919061122d565b60405180910390f35b3480156101d557600080fd5b506101f060048036038101906101eb9190610ebf565b610673565b005b3480156101fe57600080fd5b50610207610818565b604051610214919061122d565b60405180910390f35b34801561022957600080fd5b50610244600480360381019061023f9190610ebf565b61081e565b005b34801561025257600080fd5b5061025b610a11565b005b34801561026957600080fd5b50610272610ba7565b60405161027f9190611098565b60405180910390f35b34801561029457600080fd5b506102af60048036038101906102aa9190610ebf565b610bcd565b6040516102c09594939291906110b3565b60405180910390f35b3480156102d557600080fd5b506102de610cb8565b6040516102eb919061122d565b60405180910390f35b34801561030057600080fd5b50610309610cbe565b604051610316919061122d565b60405180910390f35b34801561032b57600080fd5b50610334610cc4565b604051610341919061122d565b60405180910390f35b34801561035657600080fd5b5061035f610cd9565b60405161036c919061122d565b60405180910390f35b34801561038157600080fd5b5061038a610cdf565b604051610397919061122d565b60405180910390f35b6005544211156103e5576040517f08c379a00000000000000000000000000000000000000000000000000000000081526004016103dc906111cd565b60405180910390fd5b60065434101561042a576040517f08c379a00000000000000000000000000000000000000000000000000000000081526004016104219061110d565b60405180910390fd5b60008060003373ffffffffffffffffffffffffffffffffffffffff1673ffffffffffffffffffffffffffffffffffffffff16815260200190815260200160002054141561048a576004600081548092919061048490611474565b91905055505b346003600082825461049c91906112ba565b92505081905550346000803373ffffffffffffffffffffffffffffffffffffffff1673ffffffffffffffffffffffffffffffffffffffff16815260200190815260200160002060008282546104f191906112ba565b92505081905550565b600047905090565b600160009054906101000a900473ffffffffffffffffffffffffffffffffffffffff1673ffffffffffffffffffffffffffffffffffffffff163373ffffffffffffffffffffffffffffffffffffffff1614610592576040517f08c379a00000000000000000000000000000000000000000000000000000000081526004016105899061114d565b60405180910390fd5b60006007600060085481526020019081526020016000209050600860008154809291906105be90611474565b9190505550838160000190805190602001906105db929190610ce5565b50828160010160006101000a81548173ffffffffffffffffffffffffffffffffffffffff021916908373ffffffffffffffffffffffffffffffffffffffff16021790555081816002018190555060008160040160006101000a81548160ff0219169083151502179055506000816003018190555050505050565b60006020528060005260406000206000915090505481565b60055481565b60008060003373ffffffffffffffffffffffffffffffffffffffff1673ffffffffffffffffffffffffffffffffffffffff16815260200190815260200160002054116106f4576040517f08c379a00000000000000000000000000000000000000000000000000000000081526004016106eb9061120d565b60405180910390fd5b6000600760008381526020019081526020016000209050600015158160050160003373ffffffffffffffffffffffffffffffffffffffff1673ffffffffffffffffffffffffffffffffffffffff16815260200190815260200160002060009054906101000a900460ff161515146107a0576040517f08c379a00000000000000000000000000000000000000000000000000000000081526004016107979061118d565b60405180910390fd5b60018160050160003373ffffffffffffffffffffffffffffffffffffffff1673ffffffffffffffffffffffffffffffffffffffff16815260200190815260200160002060006101000a81548160ff02191690831515021790555080600301600081548092919061080f90611474565b91905055505050565b60045481565b600160009054906101000a900473ffffffffffffffffffffffffffffffffffffffff1673ffffffffffffffffffffffffffffffffffffffff163373ffffffffffffffffffffffffffffffffffffffff16146108ae576040517f08c379a00000000000000000000000000000000000000000000000000000000081526004016108a59061114d565b60405180910390fd5b600254600354116108f4576040517f08c379a00000000000000000000000000000000000000000000000000000000081526004016108eb9061112d565b60405180910390fd5b6000600760008381526020019081526020016000209050600015158160040160009054906101000a900460ff1615151461092d57600080fd5b600260045461093c9190611310565b816003015411610981576040517f08c379a0000000000000000000000000000000000000000000000000000000008152600401610978906111ad565b60405180910390fd5b8060010160009054906101000a900473ffffffffffffffffffffffffffffffffffffffff1673ffffffffffffffffffffffffffffffffffffffff166108fc82600201549081150290604051600060405180830381858888f193505050501580156109ef573d6000803e3d6000fd5b5060018160040160006101000a81548160ff0219169083151502179055505050565b6005544211610a55576040517f08c379a0000000000000000000000000000000000000000000000000000000008152600401610a4c9061116d565b60405180910390fd5b60008060003373ffffffffffffffffffffffffffffffffffffffff1673ffffffffffffffffffffffffffffffffffffffff1681526020019081526020016000205411610ad6576040517f08c379a0000000000000000000000000000000000000000000000000000000008152600401610acd906111ed565b60405180910390fd5b60003390508073ffffffffffffffffffffffffffffffffffffffff166108fc6000803373ffffffffffffffffffffffffffffffffffffffff1673ffffffffffffffffffffffffffffffffffffffff168152602001908152602001600020549081150290604051600060405180830381858888f19350505050158015610b5f573d6000803e3d6000fd5b5060008060003373ffffffffffffffffffffffffffffffffffffffff1673ffffffffffffffffffffffffffffffffffffffff1681526020019081526020016000208190555050565b600160009054906101000a900473ffffffffffffffffffffffffffffffffffffffff1681565b6007602052806000526040600020600091509050806000018054610bf090611411565b80601f0160208091040260200160405190810160405280929190818152602001828054610c1c90611411565b8015610c695780601f10610c3e57610100808354040283529160200191610c69565b820191906000526020600020905b815481529060010190602001808311610c4c57829003601f168201915b5050505050908060010160009054906101000a900473ffffffffffffffffffffffffffffffffffffffff16908060020154908060030154908060040160009054906101000a900460ff16905085565b60065481565b60085481565b600042600554610cd49190611341565b905090565b60035481565b60025481565b828054610cf190611411565b90600052602060002090601f016020900481019282610d135760008555610d5a565b82601f10610d2c57805160ff1916838001178555610d5a565b82800160010185558215610d5a579182015b82811115610d59578251825591602001919060010190610d3e565b5b509050610d679190610d6b565b5090565b5b80821115610d84576000816000905550600101610d6c565b5090565b6000610d9b610d968461126d565b611248565b905082815260208101848484011115610db357600080fd5b610dbe8482856113cf565b509392505050565b600081359050610dd581611793565b92915050565b600081359050610dea816117aa565b92915050565b600082601f830112610e0157600080fd5b8135610e11848260208601610d88565b91505092915050565b600081359050610e29816117c1565b92915050565b600060208284031215610e4157600080fd5b6000610e4f84828501610dc6565b91505092915050565b600080600060608486031215610e6d57600080fd5b600084013567ffffffffffffffff811115610e8757600080fd5b610e9386828701610df0565b9350506020610ea486828701610ddb565b9250506040610eb586828701610e1a565b9150509250925092565b600060208284031215610ed157600080fd5b6000610edf84828501610e1a565b91505092915050565b610ef181611387565b82525050565b610f0081611375565b82525050565b610f0f81611399565b82525050565b6000610f208261129e565b610f2a81856112a9565b9350610f3a8185602086016113de565b610f4381611579565b840191505092915050565b6000610f5b601f836112a9565b9150610f668261158a565b602082019050919050565b6000610f7e6023836112a9565b9150610f89826115b3565b604082019050919050565b6000610fa16022836112a9565b9150610fac82611602565b604082019050919050565b6000610fc46018836112a9565b9150610fcf82611651565b602082019050919050565b6000610fe76017836112a9565b9150610ff28261167a565b602082019050919050565b600061100a6020836112a9565b9150611015826116a3565b602082019050919050565b600061102d6013836112a9565b9150611038826116cc565b602082019050919050565b60006110506022836112a9565b915061105b826116f5565b604082019050919050565b60006110736034836112a9565b915061107e82611744565b604082019050919050565b611092816113c5565b82525050565b60006020820190506110ad6000830184610ef7565b92915050565b600060a08201905081810360008301526110cd8188610f15565b90506110dc6020830187610ee8565b6110e96040830186611089565b6110f66060830185611089565b6111036080830184610f06565b9695505050505050565b6000602082019050818103600083015261112681610f4e565b9050919050565b6000602082019050818103600083015261114681610f71565b9050919050565b6000602082019050818103600083015261116681610f94565b9050919050565b6000602082019050818103600083015261118681610fb7565b9050919050565b600060208201905081810360008301526111a681610fda565b9050919050565b600060208201905081810360008301526111c681610ffd565b9050919050565b600060208201905081810360008301526111e681611020565b9050919050565b6000602082019050818103600083015261120681611043565b9050919050565b6000602082019050818103600083015261122681611066565b9050919050565b60006020820190506112426000830184611089565b92915050565b6000611252611263565b905061125e8282611443565b919050565b6000604051905090565b600067ffffffffffffffff8211156112885761128761154a565b5b61129182611579565b9050602081019050919050565b600081519050919050565b600082825260208201905092915050565b60006112c5826113c5565b91506112d0836113c5565b9250827fffffffffffffffffffffffffffffffffffffffffffffffffffffffffffffffff03821115611305576113046114bd565b5b828201905092915050565b600061131b826113c5565b9150611326836113c5565b925082611336576113356114ec565b5b828204905092915050565b600061134c826113c5565b9150611357836113c5565b92508282101561136a576113696114bd565b5b828203905092915050565b6000611380826113a5565b9050919050565b6000611392826113a5565b9050919050565b60008115159050919050565b600073ffffffffffffffffffffffffffffffffffffffff82169050919050565b6000819050919050565b82818337600083830152505050565b60005b838110156113fc5780820151818401526020810190506113e1565b8381111561140b576000848401525b50505050565b6000600282049050600182168061142957607f821691505b6020821081141561143d5761143c61151b565b5b50919050565b61144c82611579565b810181811067ffffffffffffffff8211171561146b5761146a61154a565b5b80604052505050565b600061147f826113c5565b91507fffffffffffffffffffffffffffffffffffffffffffffffffffffffffffffffff8214156114b2576114b16114bd565b5b600182019050919050565b7f4e487b7100000000000000000000000000000000000000000000000000000000600052601160045260246000fd5b7f4e487b7100000000000000000000000000000000000000000000000000000000600052601260045260246000fd5b7f4e487b7100000000000000000000000000000000000000000000000000000000600052602260045260246000fd5b7f4e487b7100000000000000000000000000000000000000000000000000000000600052604160045260246000fd5b6000601f19601f8301169050919050565b7f4d696e696d756d20636f6e747269627574696f6e206973203130302077656900600082015250565b7f5261697365642066756e6420646964206e6f74206d656574207468652054617260008201527f6765740000000000000000000000000000000000000000000000000000000000602082015250565b7f4f6e6c79206d616e616765722063616e2073656e64207468652072657175657360008201527f742e000000000000000000000000000000000000000000000000000000000000602082015250565b7f646561646c696e65206973206e6f74206f766572207965740000000000000000600082015250565b7f796f75206861766520616c726561647920766f7465642e000000000000000000600082015250565b7f4d616a6f72697479206d757374206167726565207468652070726f706f73616c600082015250565b7f54696d65204c696d697420657863656564656400000000000000000000000000600082015250565b7f796f752068617665206e6f74206d616b6520616e7920636f6e7472696275746960008201527f6f6e000000000000000000000000000000000000000000000000000000000000602082015250565b7f596f752068617665206e6f2072696768747320746f20766f74652c20706c656160008201527f736520636f6e747269627574652066697273742e000000000000000000000000602082015250565b61179c81611375565b81146117a757600080fd5b50565b6117b381611387565b81146117be57600080fd5b50565b6117ca816113c5565b81146117d557600080fd5b5056fea264697066735822122005af9d0298029b6808d8ca98965f0d0cd2c9ade67eaabd10c285051ea4fd3a4b64736f6c63430008040033",
  "immutableReferences": {},
  "source": "// SPDX-License-Identifier: MIT\r\npragma solidity >=0.5.0 <0.9.0;\r\n\r\n\r\n\r\ncontract CrowdFunding{\r\n\r\n    mapping(address=>uint) public contributors;   \r\n    address public Manager; \r\n    uint public target;\r\n    uint public raisedAmount;\r\n    uint public noOfContributors;\r\n    uint public deadline;\r\n    uint public minimumContribution;\r\n\r\n    struct Request{\r\n        string description;\r\n        address payable recipient;\r\n        uint value;\r\n        uint noOfVoters;\r\n        bool completed;\r\n        mapping(address=>bool) voters;\r\n    }\r\n\r\n    mapping(uint=>Request) public requests;\r\n    uint public numRequests;\r\n    constructor(){\r\n              target=3000000000;\r\n              Manager=msg.sender;\r\n              minimumContribution=100 wei;\r\n              deadline=block.timestamp+216000;\r\n      \r\n    }\r\n    \r\n    function remainingTime()public view returns(uint){\r\n        return deadline-block.timestamp;\r\n    }\r\n\r\n    //modification\r\n    // function startDate()public view returns(uint){\r\n    //     return block.timestamp;\r\n    // }\r\n\r\n    function sendEth() public payable {\r\n        require(block.timestamp<=deadline,\"Time Limit exceeded\");\r\n        require(msg.value>=minimumContribution,\"Minimum contribution is 100 wei\");\r\n        if(contributors[msg.sender]==0){\r\n            noOfContributors++;\r\n        }\r\n        raisedAmount+=msg.value;\r\n        contributors[msg.sender]+=msg.value;\r\n    }\r\n\r\n    function getBalance() public view returns(uint){\r\n        return address(this).balance;\r\n    }\r\n\r\n    function refund() public {\r\n        require(block.timestamp>deadline,\"deadline is not over yet\");\r\n        require(contributors[msg.sender]>0,\"you have not make any contribution\");\r\n        address payable user=payable(msg.sender);\r\n        user.transfer(contributors[msg.sender]);\r\n        contributors[msg.sender]=0;\r\n    }\r\n\r\n    modifier onlyManager(){\r\n        require(msg.sender==Manager,\"Only manager can send the request.\");\r\n        _;\r\n    }   \r\n    \r\n    function createRequest(string memory _description,address payable _recipient,uint _value) public onlyManager{\r\n            Request storage newRequest=requests[numRequests];\r\n            numRequests++;\r\n            newRequest.description=_description;\r\n            newRequest.recipient=_recipient;\r\n            newRequest.value=_value;\r\n            newRequest.completed=false;\r\n            newRequest.noOfVoters=0;\r\n    }\r\n\r\n\r\n    function voteRequest(uint _requestNo) public {\r\n        require(contributors[msg.sender]>0,\"You have no rights to vote, please contribute first.\");\r\n        Request storage thisRequest=requests[_requestNo];\r\n        require(thisRequest.voters[msg.sender]==false,\"you have already voted.\");\r\n        thisRequest.voters[msg.sender]=true;\r\n        thisRequest.noOfVoters++;\r\n    }\r\n\r\n    function makePayment(uint _requestNo) public onlyManager{\r\n        require(raisedAmount>target,\"Raised fund did not meet the Target\");\r\n        Request storage thisRequest=requests[_requestNo];\r\n        require(thisRequest.completed==false);\r\n        require(thisRequest.noOfVoters>noOfContributors/2,\"Majority must agree the proposal\");\r\n        thisRequest.recipient.transfer(thisRequest.value);\r\n        thisRequest.completed=true;\r\n    }\r\n    receive() payable external{}\r\n}",
  "sourcePath": "C:\\Users\\user\\Desktop\\Projects\\Blockchain\\New folder\\kj\\contracts\\CrowdFunding.sol",
  "compiler": {
    "name": "solc",
    "version": "0.8.4+commit.c7e474f2.Emscripten.clang"
  },
  "schemaVersion": "3.4.6",
  "updatedAt": "2022-04-02T06:34:34.674Z",
  "networkType": "ethereum",
  "devdoc": {
    "kind": "dev",
    "methods": {},
    "version": 1
  },
  "userdoc": {
    "kind": "user",
    "methods": {},
    "version": 1
  }
}